:020000040000FA
:1000000030030020850200008D0200008F020000F6
:100010009102000093020000950200000000000021
:100020000000000000000000000000009702000037
:1000300099020000000000009B0200009D020000E9
:100040009F020000A1020000A3020000A502000020
:10005000A7020000A9020000AB020000AD020000F0
:10006000AF020000B1020000B3020000B5020000C0
:10007000B7020000B9020000BB020000BD02000090
:10008000BF020000C1020000C3020000C502000060
:10009000C7020000C9020000CB020000CD02000030
:1000A000CF020000D1020000D3020000D502000000
:1000B000D7020000D9020000DB020000DD020000D0
:1000C000DF020000E1020000E3020000E5020000A0
:1000D000E7020000E9020000EB020000ED02000070
:1000E000EF020000F102000000000000F302000037
:1000F000F5020000F7020000F9020000FB02000018
:10010000FD020000FF0200000103000003030000E5
:1001100000000000000000000503000007030000CD
:10012000090300000B0300000D0300000F03000093
:100130001103000013030000150300001703000063
:1001400000000000000000000000000000000000AF
:10015000190300001B0300001D0300001F03000023
:10016000000000000000000000000000000000008F
:10017000000000000000000000000000000000007F
:10018000000000000000000000000000000000006F
:10019000000000000000000000000000000000005F
:1001A000000000000000000000000000000000004F
:1001B00021030000230300002503000027030000A3
:1001C000290300002B0300002D0300002F03000073
:1001D0003103000033030000350300003703000043
:1001E000390300003B0300003D0300000000000055
:1001F000000000003F030000410300004303000033
:10020000450300004703000000000000000000005C
:10021000490300004B0300004D0300004F030000A2
:100220005103000053030000550300005703000072
:10023000590300005B0300005D0300005F03000042
:100240006103000063030000650300006703000012
:10025000690300006B0300006D0300006F030000E2
:10026000710300007303000075030000DFF810D075
:1002700000F062FC00480047A5390000AFF30080A1
:10028000300300203C4880473C480047FEE7FEE73B
:10029000FEE7FEE7FEE7FEE7FEE7FEE7FEE7FEE736
:1002A000FEE7FEE7FEE7FEE7FEE7FEE7FEE7FEE726
:1002B000FEE7FEE7FEE7FEE7FEE7FEE7FEE7FEE716
:1002C000FEE7FEE7FEE7FEE7FEE7FEE7FEE7FEE706
:1002D000FEE7FEE7FEE7FEE7FEE7FEE7FEE7FEE7F6
:1002E000FEE7FEE7FEE7FEE7FEE7FEE7FEE7FEE7E6
:1002F000FEE7FEE7FEE7FEE7FEE7FEE7FEE7FEE7D6
:10030000FEE7FEE7FEE7FEE7FEE7FEE7FEE7FEE7C5
:10031000FEE7FEE7FEE7FEE7FEE7FEE7FEE7FEE7B5
:10032000FEE7FEE7FEE7FEE7FEE7FEE7FEE7FEE7A5
:10033000FEE7FEE7FEE7FEE7FEE7FEE7FEE7FEE795
:10034000FEE7FEE7FEE7FEE7FEE7FEE7FEE7FEE785
:10035000FEE7FEE7FEE7FEE7FEE7FEE7FEE7FEE775
:10036000FEE7FEE7FEE7FEE7FEE7FEE7FEE7FEE765
:10037000FEE7FEE7FEE700000D2100006D02000031
:10038000D2B201E000F8012B491EFBD270470022D7
:10039000F6E710B513460A4604461946FFF7F0FF84
:1003A000204610BD421E12F8013F002BFBD111F870
:1003B000013B02F8013B002BF9D17047421C10F8B9
:1003C000011B0029FBD1801A7047034611F8012B4D
:1003D00000F8012B002AF9D11846704770B506467F
:1003E00001F00CFF046805460A220021304600F0A7
:1003F00079F92C6070BD2DE9FE4F81EA030404F009
:10040000004421F0004100944FF0000B23F0004322
:1004100050EA01045ED052EA03045BD0C3F30A54ED
:10042000C1F30A552C44A4F2F3340194A0FB025406
:10043000C1F3130141F48011C3F3130343F4801398
:1004400001FB024400FB034E840A970A44EA8154EC
:1004500047EA8357A4FB076802958D0A05FB0785C9
:100460004FEA932C04FB0C542705029D4FEA0658D3
:1004700047EA1637B5EB08056EEB070C870E920EB0
:1004800047EA811742EA8312A7FB0201B6EB0B0190
:1004900064EB00042B0D43EA0C335E1844EB1C5054
:1004A000DA465146E7FB0201C5F313044FEA0B336A
:1004B00043EA14534FEA0432019C43EA0603A4F1D1
:1004C0000C040294009CCDE900B400F089F903B05B
:1004D000BDE8F08F00200146F9E70EB5C10F80EAB4
:1004E000E0700844CA07002140F233438DE80E0053
:1004F0000A460B4600F074F903B000BD70B5C1F3B5
:100500000A5201F000450024C1F3130140F2FF3309
:1005100041F480119A4201DA002070BD40F2334369
:100520009A42A2F2334203DC524200F07CF800E02F
:1005300090402C43F1D0404270BD00F0004230F0BA
:1005400000400AD0C10D01F56071C0F3160042EA07
:100550000151C2084007114370470020014670470F
:1005600001F0004330B421F0004150EA010206D00E
:100570000A0DA2F56072C1F31301002A02DC30BC3F
:1005800000207047440F44EAC104C100E01830BCA9
:1005900000EBC25000F0DEB830B50B46014600203B
:1005A0002022012409E021FA02F59D4205D303FA35
:1005B00002F5491B04FA02F52844151EA2F10102B6
:1005C000F1DC30BD2DE9F05F0546002092469B46E8
:1005D00088460646814640241BE028464146474659
:1005E000224600F020F853465A46C01A914110D3D3
:1005F00011461846224600F0B1FA2D1A67EB0108A1
:100600004F4622460120002100F0A8FA17EB00090E
:100610004E41201EA4F10104DFDC484631462A4643
:100620004346BDE8F09F202A04DB203A21FA02F07D
:100630000021704721FA02F3D040C2F1200291401C
:1006400008431946704700000FB4002300B589B075
:100650000CA900910B996FF00042CB601E4B0693E2
:100660001E4B07930423CDE901321D4A089202462E
:100670006B46002000F036FB09B05DF814FB70B546
:1006800086B006464FF0FF300091CDE90101002011
:1006900015460C4604903246694604A8FFF7D4FF7D
:1006A00002460498211825B108B1084600E020460A
:1006B0002860049800280DD0002A02DD00988842A6
:1006C00008D0081B0094CDE901043246694604A80D
:1006D000FFF7BAFF06B070BD1D0F00003B0F000012
:1006E000A90B00002DE9F04791460F4680460446CD
:1006F000002614F8015B2DB100F052FA0068405D4D
:10070000C007F6D12B2D02D02D2D18D0641E4A46DD
:100710003946204600F022FC27B13968A14201D1B8
:10072000C7F8008071054FF002040BD54042002845
:1007300003DD01F063FD0460A007BDE8F08746F427
:100740008066E4E70028F8DA01F058FD04606FF0F5
:100750000040F2E70029A8BF7047401C490008BFCD
:1007600020F00100704710B4B0FA80FC00FA0CF0E1
:1007700050EA010404BF10BC704749B1CCF1200419
:1007800021FA04F411FA0CF118BF012121430843A6
:10079000A3EB0C01CB1D4FEA00614FEA102042BFD2
:1007A000002010BC704700EBC35010440029A4BFC8
:1007B00010BC7047401C490008BF20F0010010BC6D
:1007C000704710B5141E73F1000408DA401C41F1A3
:1007D000000192185B411A4301D120F0010010BDC5
:1007E0002DE9F04D92469B4611B1B1FA81F202E03B
:1007F000B0FA80F22032904600F0B0F904460F467D
:1008000040EA0A0041EA0B0153465A46084313D016
:10081000114653EA010019D0C8F140025046FFF7D3
:1008200002FF05460E4650465946424600F096F9EC
:10083000084305D0012004E020463946BDE8F08D8C
:100840000020054346EAE0762C4337430A986305C7
:10085000E40AA0EB08000022FD0A44EA47540A30EB
:1008600002D500200146E9E7010510196941DDE9DB
:10087000084500196941BDE8F04DA2E72DE9FE4F9A
:10088000804681EA0300C00F0C46009021F0004131
:1008900023F00045B8EB0200A94105D240462146AD
:1008A00090461C460B46024623F00040104347D0BA
:1008B000270DC7F30A00C3F30A510290401A0190B2
:1008C00040286BDAC3F3130040F4801B0098924673
:1008D00020B10023D2EB030A63EB0B0B01985946BE
:1008E000C0F14002504600F039F906460D46504628
:1008F0005946019A00F041F910EB080061410024CB
:1009000087EA115284EAE7731A4340D0009A62B32F
:10091000019A012A4FEA075215DC001B61EB020124
:100920004FF0004202EA0752CDE90042001C41F5B7
:10093000801132462B46FFF753FF03B0BDE8F08F1E
:1009400040462146F9E7001B61EB0201001C41F51E
:10095000801300185B412018A2F5001747EB030134
:1009600040EAD570B6196D4111E06D084FEA3606C0
:1009700045EAC0754FEA0752001B61EB0201001CFB
:1009800041F5801149084FEA3000001951413246C3
:100990002B4603B0BDE8F04FFFF713BF00980122CC
:1009A00040000023D0EB020263EBE0730098214685
:1009B0004FEAE074B8EB000061EB0401E9E783F073
:1009C00000435BE781F0004158E72DE9F04D81EAF3
:1009D000030404F0004B21F0004514464FF0000AD8
:1009E00023F0004150EA050220D054EA01021DD054
:1009F000C5F30A570246C5F31303C1F31300C1F34D
:100A00000A5640F4801543F48013A7EB0608101B28
:100A1000D64608F2FD3873EB050002D308F1010851
:100A200001E092185B41B8F1000F03DA00200146A3
:100A3000BDE8F08D00204FF48011064684460EE09C
:100A4000171B73EB050705D3121B63EB0503064366
:100A50004CEA010C49084FEA300092185B4150EA19
:100A60000107EDD152EA030012D082EA040083EAC2
:100A70000501084305D0101BAB4106D2012200231B
:100A800006E000224FF0004302E06FF00102531035
:100A90001AEB06004CEB085110EB0A0041EB0B017E
:100AA000BDE8F04DFFF78DBE70B521F00043034364
:100AB0000CD0C1F30A550024D5EB040564EB040304
:100AC000D617AD1AB34102DB0020014670BD2018D5
:100AD00041EB025170BDC1F30A52C1F3130140F260
:100AE000FF3341F480119A4202DA00200146704738
:100AF00040F233439A42A2F2334202DC5242FFF701
:100B000092BD00F02BB8000030B5041E71F1000456
:100B100004DB4FF00044404264EB0101141E73F10A
:100B2000000405DB1C464FF00043524263EB040314
:100B3000994208BF904230BD064C074D06E0E06880
:100B400040F0010394E8070098471034AC42F6D314
:100B5000FFF790FB783E0000983E0000202A04DB5F
:100B6000203A00FA02F1002070479140C2F12003C0
:100B700020FA03F3194390407047202A06DBCB1775
:100B8000203A41FA02F043EAE07306E041FA02F348
:100B9000D040C2F12002914008431946704700003E
:100BA00000487047743E000010B50446FFF7F8FF98
:100BB0000068005D00F0010010BD00002DE9FF4F4E
:100BC000087883B09946FF2805D0491C2D2804D009
:100BD0000024002008E000200BE00124F9E700EBEE
:100BE000800003EB4000491C0B78FF2BF7D104B1C8
:100BF000404200230293147819461D462D2C01D043
:100C00002B2C04D1521C2D2C13D000240294AA4664
:100C10001478FF2C0FD00A25A3FB057801FB058172
:100C20004FF0000C03FB0C11521CE3194AEB0101BD
:100C3000EEE70124EAE7814453EA010002D019F506
:100C4000C87F06DA03980021C0E9001107B0BDE8AB
:100C5000F08F0025AE4E2F46DFF8B882184600F020
:100C60002BFACDE90001B9F1000002DAC9F1000464
:100C700000E004460023A74A1AEB030B42EB045A98
:100C800012E0E00707D02A46334638464146FFF7D0
:100C9000B2FB074688462A46334610461946FFF7F8
:100CA000AAFB05460E466410002CEAD1DDE90001DE
:100CB000B9F1000F5A46534606DAFFF786FE3A4668
:100CC0004346FFF782FE05E0FFF795FB3A464346B1
:100CD000FFF791FB029A0AB181F00041039AC2E941
:100CE0000001B3E72DE9FF4F1F468DB0D7E901465C
:100CF0004FF0FF382E2045464FF000090B90B969A0
:100D00006D1C0E988847396A824688470028F6D1BC
:100D1000BAF1FF3F0AD024F4D064002E11DDBAF1FD
:100D20002B0F08D0BAF12D0F0BD102E0404611B0C5
:100D30008DE744F48064B9696D1C0E98884782463B
:100D4000761E6946600501D52D2000E02B208DF828
:100D5000000001F1010B0DF1200809E0B9696D1CDB
:100D60000E98884782460F9844F40074761E0560FA
:100D7000002E02DDBAF1300FF0D00B998A453ED13A
:100D800044F0800406E00F99681CA9F1010944F4BD
:100D900000740860B9696D1C761E0E9888478246FB
:100DA0003028F0D02BE00B998A4505D1200603D4DA
:100DB00044F08004761E18E0504602F017FA08B39B
:100DC0000DF11301761E44F400748B4508D2AAF18C
:100DD00030000BF8010B200607D5A9F1010003E054
:100DE000200602D409F101008146A00502D50F9921
:100DF000681C0860B9696D1C0E9888478246002EF1
:100E0000D1DC53E0002E51DDBAF1650F02D0BAF10A
:100E1000450F4BD1A00549D5B9696D1C24F4407428
:100E2000761E0E9888478246002E0CDD2B2804D0B3
:100E3000BAF12D0F07D144F48074B9696D1C0E9876
:100E400088478246761EE00501D52D2100E02B2142
:100E500008F8011BCDF82C8021E00DF12901761E48
:100E600044F4007488450CD2AAF1300010F0FF0061
:100E700088F8000002D10B99884509D908F10108CA
:100E800006E0E00501D5244801E042F20F708146FA
:100E9000B9696D1C0E98884782460F980560002E30
:100EA00004DD504602F0A2F90028D6D1F9690E9867
:100EB0008847FF208BF8000088F80000002006908B
:100EC00007904B466A4608A906A8FFF777FEA005DB
:100ED00002D46FF001002AE714F0240F0AD0E007D3
:100EE00014D1DDE906123868031D3B600068C0E9D3
:100EF00000120BE0DDE90601FFF732FB0146E007D7
:100F000004D13868021D3A600068016028460EE787
:100F1000000014400000F03FF1D8FFFF426842B1EA
:100F2000016811F8013B23B1521EC0E900121846B6
:100F300070470121C160881E704742685AB1C3687A
:100F4000016843B983688B4205D0491E521CC0E931
:100F50000012002070474FF0FF3070472DE9F05F1E
:100F600082460078002715468B460AF10104B946EF
:100F7000302801D09DB113E014F8010B0127782827
:100F800003D0582801D045B10AE00DB1102D07D18A
:100F90000027102514F8010B02E0082500E00A25BF
:100FA0000026B0460EE005FB080005FB06F1012710
:100FB00001EB10461FFA80F8B6F5803F00D3B94622
:100FC00014F8010B294600F069F80028EBDABBF1B0
:100FD000000F05D00FB1641E00E05446CBF800406E
:100FE000B9F1000F06D001F009F902210160C81E15
:100FF000BDE8F09F48EA0640FAE72DE9F04D0023EE
:101000001A461B1A8A4103DB00200146BDE8F08D19
:10101000C1F30A52C1F3130141F480154FF0000BE4
:10102000D10702D100186D41521E0027044640F23C
:10103000FF11384601EB620A3E4680460246002018
:101040004FF48011FFF7EFFAC2197141BB1846EB5C
:101050000100B4EB030C75EB000C04D3E41A65EB50
:10106000000517460E46241908F101006D4180461F
:101070003428E3DDF91946EB0600091BA84103D229
:101080004FF0FF32134601E0002213461BEB07002E
:1010900046EB0A51BDE8F04DFFF793BB3A2800D26A
:1010A000303820F02002412A01D3A2F137008842D3
:1010B00001D34FF0FF3070470EB540F23342029239
:1010C0000022CDE900221346FFF78AFB03B000BDE2
:1010D00010B52DED088B82B00446FE48006860B95B
:1010E000204600F0E3FF01909DF80400202803D083
:1010F00001A9F948FFF756F900BFF6480068012832
:101100000CD1204600F0D2FF01909DF80400202869
:1011100003D001A9F148FFF745F900BFED48006889
:1011200002280CD1204600F0C1FF01909DF8040078
:10113000202803D001A9EA48FFF734F900BFE548A9
:10114000006803280CD1204600F0B0FF01909DF804
:101150000400202803D001A9E248FFF723F900BFCB
:10116000E1480068002862D1412C0AD10120DF4902
:10117000D84A126841F82200D6480068401CD54978
:101180000860422C0AD10220D849D24A126841F89C
:101190002200D0480068401CCE490860432C08D18A
:1011A000D348006828B92E20FFF792FF0120D049CC
:1011B0000860442C02D10120CB490860232C36D191
:1011C000C4480068A8B900BFC348FFF7F7F8401E3D
:1011D000C14900220A54C7480068401EC54908603A
:1011E000202000F041FEC3480068401EC14908604D
:1011F0001DE0B8480068012800D100BFB54800686C
:10120000012814D100BFB548FFF7D8F8401EB349F4
:1012100000220A54B7480068401EB64908602020E2
:1012200000F022FEB3480068401EB2490860AE4894
:101230000068012851D1412C0DD10020AA49086035
:101240000320AA49A34A126841F82200A148006875
:10125000401CA0490860422C0DD10020A249086022
:101260000420A2499B4A126841F82200994800686C
:10127000401C98490860432C0AD105219B48954A97
:10128000126840F8221093480068401C9149086099
:10129000442C02D1002094490860232C1DD100F079
:1012A000A9FD14218C48FFF772F814218B48FFF731
:1012B0006EF89FED910A914880ED000A9FED8E0A2D
:1012C0008F4880ED000A0020824908608749086045
:1012D0009FED890A8B4880ED000A2A2C01D101205C
:1012E00000E000203D2C01D1012100E00021084355
:1012F00000287DD07D48006800287AD07B4840686F
:10130000002876D1744800F07FFFB0EE408AF0EEFE
:10131000608A51EC180BFFF723F9784908606F4891
:1013200000F072FFB0EE408AF0EE608A51EC180BCC
:10133000FFF716F97249086014216748FFF727F88C
:1013400014216648FFF723F86848006801280AD18D
:101350006A4890ED000A6A48D0ED000A30EE200A93
:10136000684880ED000A6148006802280AD1634895
:1013700090ED000A6248D0ED000A30EE600A614844
:1013800080ED000A5948006803280AD15B4890EDB7
:10139000000A5B48D0ED000A20EE200A594880ED93
:1013A000000A5248006804280AD1544890ED000A07
:1013B0005348D0ED000A80EE201A524880ED001A02
:1013C0004A480068052824D14D480068FFF7B5F861
:1013D00041EC1B0BB0EE4B1AF0EE6B1A9FED4A0B73
:1013E00000F02EFFB0EE409AF0EE609A434801E024
:1013F00064E32BE00068FFF7A0F841EC1A0B53EC14
:10140000192BFEF7F8FF41EC180BFFF7A9F83D493F
:1014100008603C480068FFF790F841EC180B53EC6B
:10142000182B3BA12C4800F0BDFE9FED330A344839
:1014300080ED000A334890ED000A304880ED000A44
:10144000002024490860294908604860274840680E
:1014500000287CD025488068002878D11E4800F0FC
:10146000D3FEB0EE408AF0EE608A51EC180BFFF725
:1014700077F822490860194800F0C6FEB0EE408AAD
:10148000F0EE608A51EC180BFFF76AF81C4908600F
:10149000134800F0B9FEB0EE408AF0EE608A51ECDD
:1014A000180BFFF75DF81C49086014210A48FEF785
:1014B0006EFF14210948FEF76AFF14210848FEF761
:1014C00066FF0A480068012831D10C4890ED000AF7
:1014D0000B4823E018000020DC000020F000002072
:1014E0000401002018010020200000203C00002002
:1014F000240000201C00002000000000000000204C
:101500000400002010000020000000000000244023
:1015100025302E326600000008000020D0ED000AC1
:1015200030EE200ABDEEC00AFE4880ED000AFE48FB
:10153000006802280ED1FD4890ED000AFC48D0ED6D
:10154000000A30EE600ABDEEC00AF64800E0D6E0C0
:1015500080ED000AF448006803280CD1F34890EDB0
:10156000000AF348D0ED000A20EE200ABDEEC00AC2
:10157000EC4880ED000AEC48006804280CD1EB48E8
:1015800090ED000AEA48D0ED000A80EE201ABDEE88
:10159000C10AE44880ED000AE3480068052821D12B
:1015A000E3480068FEF7C9FF41EC1B0BB0EE4B1A95
:1015B000F0EE6B1A1FED2C0B00F042FEB0EE409ADD
:1015C000F0EE609AD9480068FEF7B7FF41EC1A0BBD
:1015D00053EC192BFEF70FFF41EC180BFEF78EFFB3
:1015E000D0490860D048406801280CD1CD4890ED22
:1015F000000AB8EEC00ACF48D0ED000A30EE200A4B
:10160000CD4880ED000AC848406802280CD1C54882
:1016100090ED000AB8EEC00AC648D0ED000A30EEE0
:10162000600AC54880ED000ABF48406803280CD115
:10163000BC4890ED000AB8EEC00ABE48D0ED000AE2
:1016400020EE200ABC4880ED000AB7484068042814
:101650000CD1B44890ED000AB8EEC00AB548D0ED00
:10166000000A80EE201AB44880ED001AAE484068A7
:10167000052821D1AF480068FEF75FFF41EC1B0B46
:10168000B0EE4B1AF0EE6B1A1FED610B00F0D8FDB7
:10169000B0EE409AF0EE609AA2480068FEF71DFF97
:1016A00041EC1A0B53EC192BFEF7A5FE41EC180B7D
:1016B000FEF756FFA04908609F480068FEF73DFF0F
:1016C00041EC180B53EC182BAFF2BC119B4800F007
:1016D00069FD1FED770A964880ED000A1FED7A0A32
:1016E000944880ED000A944890ED000A8F4880ED00
:1016F000000A0020924908608B49086048608A48C7
:10170000806800287ED08848C06800287AD18B483D
:1017100000F07AFDB0EE408AF0EE608A51EC180BD2
:10172000FEF71EFF81490860864800F06DFDB0EEAF
:10173000408AF0EE608A51EC180BFEF711FF7C49ED
:101740000860814800F060FDB0EE408AF0EE608AEB
:1017500051EC180BFEF704FF764908607B4800F057
:1017600053FDB0EE408AF0EE608A51EC180BFEF7A4
:10177000F7FE7749086014217048FEF708FE14212F
:101780007048FEF704FE14216F48FEF700FE142196
:101790006E48FEF7FCFD6448006801280CD16348E0
:1017A00090ED000A6248D0ED000A30EE200ABDEE4E
:1017B000C00A5C4880ED000A5B48006802280CD132
:1017C0005A4890ED000A5A48D0ED000A30EE600AFF
:1017D000BDEEC00A534880ED000A53480068032854
:1017E0000CD1524890ED000A5148D0ED000A20EE8D
:1017F000200ABDEEC00A4B4880ED000A4A48006846
:10180000042800E053E10CD1484890ED000A484814
:10181000D0ED000A80EE201ABDEEC10A414880EDED
:10182000000A41480068052821D141480068FEF7B8
:1018300084FE41EC1B0BB0EE4B1AF0EE6B1A1FED61
:10184000CE0B00F0FDFCB0EE409AF0EE609A374807
:101850000068FEF772FE41EC1A0B53EC192BFEF7F1
:10186000CAFD41EC180BFEF749FE2E4908602E48D0
:10187000406801280ED12B4890ED000AB8EEC00A4E
:101880002C48D0ED000A30EE200ABDEEC00A3148E7
:1018900080ED000A2448406802280ED1214890EDCE
:1018A000000AB8EEC00A2348D0ED000A30EE600A04
:1018B000BDEEC00A274880ED000A1B484068032897
:1018C0000ED1184890ED000AB8EEC00A1948D0EDC4
:1018D000000A20EE200ABDEEC00A1E4880ED000A74
:1018E0001148406804280ED10E4890ED000AB8EE69
:1018F000C00A1048D0ED000A80EE201ABDEEC10AE1
:10190000144880ED000A0848406805283CD1094881
:101910000068FEF712FE41EC1B0BB0EE4B1AF0EE26
:101920006B1A19E0340000203C0000200000002069
:10193000040000200800002010000020DC0000202F
:1019400018000020F00000200401002018010020F1
:101950000C000020300000209FED5C0B00F070FCBC
:10196000B0EE409AF0EE609A5A480068FEF7B5FD76
:1019700041EC1A0B53EC192BFEF73DFD41EC180B13
:10198000FEF7BCFD544908605448806801280CD11A
:10199000514890ED000AB8EEC00A5148D0ED000A57
:1019A00030EE200A4F4880ED000A4C48806802283B
:1019B0000CD1494890ED000AB8EEC00A4848D0ED75
:1019C000000A30EE600A474880ED000A434880680C
:1019D00003280CD1404890ED000AB8EEC00A4048F8
:1019E000D0ED000A20EE200A3E4880ED000A3B4878
:1019F000806804280CD1384890ED000AB8EEC00A7F
:101A00003748D0ED000A80EE201A364880ED001AE3
:101A100032488068052821D131480068FEF78DFDE5
:101A200041EC1B0BB0EE4B1AF0EE6B1A9FED270B3F
:101A300000F006FCB0EE409AF0EE609A264800688E
:101A4000FEF74BFD41EC1A0B53EC192BFEF7D3FCC0
:101A500041EC180BFEF784FD22490860214800681C
:101A6000FEF76BFD41EC180B53EC182BAFF26051F5
:101A70001D4800F097FB9FED1D0A1D4880ED000AF0
:101A80009FED1A0A1B4880ED000A9FED180A1448C2
:101A900080ED000A134890ED000A174880ED000A17
:101AA0000020164908600D490860486088600D48AC
:101AB00090ED000A02B0BDEC088B10BD9FED0B0A43
:101AC000084880ED000A90ED000AF3E700000000EE
:101AD0000000244034000020300000203C000020A2
:101AE0000C00002010000020DC000020000000009E
:101AF0000400002008000020000000201800002042
:101B000000204FF0E02108616FF07F404861002025
:101B10008861052008611B48006F40F000401949AA
:101B200008670846006F40F4006008670846006ECA
:101B300020F4F86000F5A86008660846006F20F001
:101B4000700008670846006F20F4005008670846D8
:101B5000006F40F0804008670846006F20F0FE509C
:101B600000F18070086700BF0648006D00F040007B
:101B70000028F9D00348006F20F40060014908678D
:101B80007047000000E00F40C1004A1E4FF0E02304
:101B90005A6100229A6100BF4FF0E022126902F4FC
:101BA0008032002AF8D070474FF4FA5200FB02F15D
:101BB0004A1E4FF0E0235A6100229A6100BF4FF0A5
:101BC000E022126902F48032002AF8D0704710B582
:101BD000FFF796FF00F0A2F900F020F900F06AF993
:101BE00000F002F810BD00003348006840F0080023
:101BF0003249C1F80801324832490860081D0068BE
:101C000040F00F00091D0860081D00680020091D34
:101C10000860081D00680020091D08602A48006847
:101C200040F00F0028490860274820300068002055
:101C30002549203108602348001F006840F00F004C
:101C40002049091F08601D48D0F8080140F0100025
:101C5000194908601A481D490860081D006840F0CD
:101C60000F00091D0860081D00680020091D08609C
:101C7000081D00680020091D08601548006820F054
:101C80000F001349086012482030006800201049F6
:101C9000203108600D480C38006840F00F000B49F7
:101CA0000C3908600948001F006840F00F00074920
:101CB000091F08607047000008E10F4000E00F4076
:101CC0004B434F4C207500400074004020450240BB
:101CD000004402400FB5434B0FCB8DE80F000220AC
:101CE000414908604148D0F8FC03012803D19DF820
:101CF000010004B000BD3E480068022802D19DF8F2
:101D00000500F6E73A480068042802D19DF809006A
:101D1000EFE737480068082802D19DF80D00E8E792
:101D20000120314908603148D0F8FC03012802D174
:101D30009DF80000DDE72E480068022802D19DF8DA
:101D40000400D6E72A480068042802D19DF808005C
:101D5000CFE727480068082802D19DF80C00C8E7A3
:101D60000420214908602148D0F8FC03012802D151
:101D70009DF80200BDE71E480068022802D19DF8C8
:101D80000600B6E71A480068042802D19DF80A0048
:101D9000AFE717480068082802D19DF80E00A8E7B1
:101DA0000820114908601148D0F8FC03012802D12D
:101DB0009DF803009DE70E480068022802D19DF8B7
:101DC000070096E70A480068042802D19DF80B0036
:101DD0008FE707480068082802D19DF80F0088E7C0
:101DE000202086E74C3D0000FC730040004002408C
:101DF000FC43024010B5012001F0B4FD3220FFF792
:101E0000D3FE002001F0AEFD022001F0ABFD322038
:101E1000FFF7CAFE002001F0A5FD10BD10B5282077
:101E200001F0A0FD3220FFF7BFFE002001F09AFD77
:101E3000062001F097FD3220FFF7B6FE002001F0EA
:101E400091FD0F2001F08EFD3220FFF7ADFE002046
:101E500001F088FD042001F085FD3220FFF7A4FE8B
:101E6000002001F07FFD10BD10B5044608204FF0A2
:101E7000402108624FF4C870FFF786FE20090C4924
:101E8000C863042001F04EFD4FF4FA60FFF77CFEBA
:101E900004F00F000649C863042001F043FD32201E
:101EA000FFF782FE00204FF04021086210BD0000C5
:101EB0000050004010B5FFF723FE00204FF04021F6
:101EC00008611549C8633220FFF76EFE00204FF00D
:101ED0004021086203201049C863042001F022FD5C
:101EE0003220FFF761FE03200B49C863042001F094
:101EF00019FD0220FFF758FE042001F013FD022017
:101F0000FFF752FE02200449C863042001F00AFDD5
:101F10000220FFF749FE10BD005000402C48006829
:101F200040F002002B49C1F808012B48006840F03E
:101F30000F0029490860081D00680020091D08607D
:101F4000081D00680020091D08602448006840F052
:101F50000F002249086021482030006800201F49F6
:101F6000203108601C480838006840F00F001A490A
:101F7000083908601748D0F8080140F001001549F9
:101F8000C1F808011648006840F00C0014490860C8
:101F9000081D00680020091D0860081D0068002059
:101FA000091D08600F48006840F00C000D490860EA
:101FB0000C482030006800200A4920310860084899
:101FC0000838006840F00C0005490839086070477F
:101FD00008E10F4000E00F4024550040005400404D
:101FE000244500400044004010B5044603E020783A
:101FF000FFF73AFF641C20780028F8D110BD0000DC
:102000000146302901D108467047312901D10846DF
:10201000FAE7322901D10846F6E7332901D108460B
:10202000F2E7342901D10846EEE7352901D1084607
:10203000EAE7362901D10846E6E7372901D1084603
:10204000E2E7382901D10846DEE7392901D10846FF
:10205000DAE72A2901D13D20D6E71248006870B995
:10206000412901D12B20CFE7422901D12D20CBE7F7
:10207000432904D10C48006808B92E20C4E7094858
:10208000006801280BD1412901D17820BCE7422901
:1020900001D12F20B8E7432901D14520B4E7202002
:1020A000B2E7000020000020240000200146302973
:1020B00001D108467047312901D10846FAE7322993
:1020C00001D10846F6E7332901D10846F2E7342961
:1020D00001D10846EEE7352901D10846EAE736295D
:1020E00001D10846E6E7372901D10846E2E7382959
:1020F00001D10846DEE7392901D10846DAE72E2961
:1021000001D10846D6E72020D4E700001B49096822
:1021100041F47001194A116019491A4A11671A49A4
:1021200011661A4911661A491167002000E0401C27
:10213000B0F57A7FFBD31749124A11661649116729
:10214000002000E0401CB0F57A7FFBD313490D4A14
:10215000116600BF0B49096D01F040014029F9D11A
:102160000F49084A11664FF0C0711167002000E066
:10217000401C42F210718842FAD3704788ED00E0AB
:102180001028800700E00F40D13A8E07422D9E01B3
:1021900000288001420D9E0100088001420DDE01F1
:1021A0004205DE010FB4084B10B504A902AA03983A
:1021B00001F024F8044602A9002001F0A2FB204609
:1021C00010BC5DF814FB00000339000003B4019853
:1021D0004100009850EAC12018BF04204A0D18BFE2
:1021E00040F0010040F2FF72B2EB515F08BF40F0D7
:1021F0000200012808BF052002B070470048704760
:10220000380000200000000030B583B0044600F024
:102210000FFF9FED090B05468DED000B00222146B7
:102220006846FEF72CFA284600F018FF9DED000BDB
:1022300003B030BD000000000000000000000000FE
:102240002DE9F04D2DED040B2DED0E8B96B0DDE953
:102250002550279CDDF890A025F0004624F000488A
:10226000BAF1000F14BF0121002101EB4502FC4926
:1022700053184A1093422AD3002814BF0123002385
:1022800003EB44030B44F7498B4220D358EA000187
:102290009FEDF59B76D0DFF8D8B35D4503D1BAF159
:1022A000000F05D188E0BAF1000F08BF002100D06F
:1022B000012101EB450111F5001F08D8002814BFCA
:1022C0000121002101EB440111F5001F0BD99DED07
:1022D000261B9DED240B16B0BDEC0E8B04B0BDE8A3
:1022E000F04D00F069BE0027002DBCBFE1498845D4
:1022F00021DAE1498845A8BF02271CDAC3451ADC68
:10230000DE4901EB2851142908DDC1F1340220FA1D
:1023100002F101FA02F282420DD108E058B9C1F18E
:10232000140228FA02F101FA02F2424503D101F047
:102330000101C1F1020756EA0A0124D1002C22DA78
:10234000002D18BF022F01D0012F0AD0022000F06B
:1023500085FE16B0BDEC0E8B04B0BDE8F04D00F06C
:1023600013BE022000F07AFE00F00EFE51EC100BBE
:1023700081F0004141EC100B16B0BDEC0E8B04B0A7
:10238000BDE8F08D18E09FEDBEAB9FEDBF8B002840
:1023900071D1B848804522D105F1804010F58010F8
:1023A00008BFBAF1000F07D0B3450ADC002CA8BF64
:1023B0009DED260BE0DA0DE0B0EE490AF0EE690A79
:1023C000DAE7002C06DA9DED260B51EC100B81F0BC
:1023D00000416FE0AE48784490ED000BCCE7D84563
:1023E0004DD1002C48DA2EB186423AD1BAF1000F15
:1023F00042D126E0BAF1000F13D0022000F02EFEE9
:1024000000F0F6FD8DED020B9DED240B8DED000B24
:1024100010EE900A039961F31E0003909DED020BEC
:10242000AAE78DED02AB9DED240B1AEE901A10EE8B
:10243000900A8DED000B61F31E0003909DED020BE1
:102440009AE78DED028B9DED240B18EE901A10EE9D
:10245000900A8DED000B61F31E0003909DED020BC1
:102460008AE709DA9DED240B51EC190B53EC102B84
:10247000FEF7ABFA1EE020E09DED240B7CE78642E0
:102480001BDAB4F1804F0DD0A4F10050B0F1FF5031
:1024900013D1002D11DB9DED240B51EC100B01F03D
:1024A0001DFC07E09DED240B53EC102B51EC100BA1
:1024B00000F0C2BC41EC100B5EE79DED240B51EC2B
:1024C000100B01F023FABAF1000FCDE90E0142D151
:1024D0009FED710B46B3A6F1E040B0F17F600CD0E8
:1024E0005E4538D1002D00DAA7B3022F0CBF0120C2
:1024F0004FF0FF30FDF7F1FFDCE7002D01DD002C90
:102500000DDA002D01DD002C1FDB002D16DA002C6A
:1025100014DB012F08BF9FED620B3FF42DAFB0EE2F
:102520004A0AF0EE6A0A27E7022F18BF002D0CD0E6
:10253000012F0AD1002DFFF61FAF06E0002DB8BF16
:10254000002C08DA012F3FF417AFB0EE480AF0EE86
:10255000680A11E71BE0012000EBE57050EA070173
:1025600015D0791EB0EE498AF0EE698A084308BF9B
:102570009FED4D8B4E480025804570DD4D494E48FE
:10258000884514DDB0420DDB002C19DB2FE0012063
:1025900000F064FD16B0BDEC0E8B04B0BDE8F04D4C
:1025A00000F016BDB34502DC002C09DC1FE08642BA
:1025B00002DA002C1BDA03E05E452BDD002C16DD71
:1025C000022000F04BFD00F013FD8DED020B53ECEB
:1025D0001A2B51EC180BFDF70EFFCDE90001039902
:1025E000019861F31E0003909DED020BC4E60220EA
:1025F00000F034FD00F00CFD10EE901A18EE900A79
:102600008DED020B8DED008B61F31E0003909DEDAF
:10261000020BB1E69DED0E0B53EC192B51EC100B98
:10262000FEF7CDF99FED260BCDE9080153EC102BF9
:102630009DED080B51EC100BFDF7DDFE9FED221B0D
:1026400053EC112BFEF7BEF99DED081B53EC112B3B
:10265000FDF7D1FE9FED1E1B53EC112B3CE08CE0EF
:10266000FFFF1F00FFFF0F00000000000000F03F11
:102670000000F03F0000F07F0000404301FCFFFF3E
:10268000000000000000F07F0000000000000000DB
:102690000E1A000000000000000000000000008092
:1026A000000000000000F0FF000000000000F0BF8C
:1026B0000000E0410000F043FFFFEF3F000000009A
:1026C000000000000000D03F555555555555D53FE9
:1026D000000000000000E03FFEF774F99DED080BDC
:1026E00041EC1A0B53EC102B51EC100BFDF783FE51
:1026F00053EC1A2BFDF77FFE41EC1A0B9FEDFE0BFE
:1027000053EC102B9DED080B51EC100BFDF773FEF5
:1027100041EC1B0B9FEDFA0B51EC1A0B53EC102BF9
:10272000FDF769FE41EC1A0B9FEDF70B53EC102BF4
:102730009DED080B51EC100BFDF75DFE53EC1A2BD1
:10274000FEF73DF941EC1A0B51EC1B0B53EC1A2B25
:10275000FEF794F80690CDE906519DED060B53EC7B
:102760001B2B51EC100BFEF72AF953EC1A2BFEF73A
:1027700029F941EC100B00F0A1B90020B6F5801F3B
:102780000EDA9FEDE30B53EC102B9DED0E0B51EC8D
:10279000100BFDF730FECDE90E016FF034000E4650
:1027A00000EB2650A0F2FF37C6F31300DA4940F0E1
:1027B0007F6646F040568842D8BF002408DDD749DE
:1027C0008142C8BF012403DC0024A6F580167F1CCB
:1027D000D348784400EBC4000F9690ED00CB9DEDFC
:1027E0000E0B53EC1C2B51EC100BFEF7E8F89DED93
:1027F0000E0B41EC1B0B53EC1C2B51EC100BFEF79A
:102800003DF841EC100B51EC190B53EC102BFEF77B
:10281000DCF841EC1D0B51EC1B0B53EC1D2BFDF7B1
:10282000EAFD41EC1A0BBF488DED10AB78441095D2
:1028300090ED000B4FF0005040EA660000EB844042
:102840008DED080B00F5002009909DED080B53EC71
:102850001C2B51EC100BFEF7B2F89DED0E1B53EC48
:10286000112BFEF7AFF841EC100B53EC102B9DED44
:10287000100B51EC100BFDF7BEFD9DED080B41EC6C
:102880001C0B53EC102B9DED100B51EC100BFDF7B6
:10289000B2FD53EC1B2BFEF795F853EC1C2BFEF707
:1028A0008EF853EC1D2BFDF7A6FD41EC1C0B53ECF1
:1028B0001A2B51EC1A0BFDF79EFD41EC1B0B9A48AD
:1028C0000621B0EE4B0AF0EE6B0A784400F0E0FA15
:1028D000B0EE401AF0EE601AB0EE41DAF0EE61DAD6
:1028E00053EC1B2B51EC1B0BFDF785FD53EC1D2B03
:1028F000FDF781FD9DED100B41EC1B0B53EC1A2BEA
:1029000051EC100BFDF7BAFF53EC1C2BFDF773FDD8
:1029100053EC1B2BFDF7B2FF9DED100B41EC1B0B95
:1029200053EC102B51EC100BFDF765FD41EC1D0B2A
:102930009FED7FEB53EC1E2BFDF7A0FF53EC1B2B01
:10294000FDF79CFF0890CDE908519DED080B53EC75
:102950001E2B51EC100BFEF732F853EC1D2BFEF73B
:102960002EF853EC1B2BFEF72DF89DED080B41ECD8
:102970001D0B53EC102B9DED100B51EC100BFDF7C4
:102980003AFD41EC1B0B53EC1A2B51EC1D0BFDF7E0
:1029900032FD9DED080B41EC1A0B53EC102B51EC62
:1029A0001C0BFDF728FD53EC1A2BFDF767FF41ECDC
:1029B0001A0B51EC1B0B53EC1A2BFDF75FFF0C901D
:1029C000CDE90C519DED0C0B53EC1B2B51EC100B76
:1029D000FDF7F5FF53EC1A2BFDF7F4FF41EC1B0B51
:1029E0009FED550B53EC102B9DED0C0B51EC100B88
:1029F000FDF701FD41EC1A0B9FED510B51EC1B0B48
:102A000053EC102BFDF7F7FC41EC1B0B9FED4E0B2D
:102A100053EC102B9DED0C0B51EC100BFDF7EBFC68
:102A200053EC1B2BFDF72AFF41EC100B4848784470
:102A300000EBC40090ED001B51EC100B53EC112B7C
:102A4000FDF71CFF41EC1B0B3846FDF746FDCDE9B9
:102A5000080153EC1B2B51EC1A0BFDF70FFF41EC57
:102A6000100B3C48784400EBC40090ED00CB51ECD7
:102A7000100B53EC1C2BFDF701FF9DED081B53ECD5
:102A8000112BFDF7FBFE0690CDE906519DED080BDD
:102A900053EC102B9DED060B51EC100BFDF78FFF47
:102AA00053EC1C2BFDF78BFF53EC1A2BFDF787FF24
:102AB00053EC1B2BFDF786FF41EC100B9DED261B05
:102AC00053EC102B8DED001B00959DED260B51EC6A
:102AD000100BFDF790FC9DED000B41EC1A0B53EC35
:102AE000102B9DED260B51EC100BFDF768FF9DEDB3
:102AF000061B53EC112B2FE0000000604715F73F39
:102B0000FE822B654715F73F44DF5DF80BAE543E60
:102B100000000000000040438E9803007AB60B00CE
:102B20008A150000B8150000C21400000000000063
:102B30000000000000000840000000E009C7EE3F70
:102B4000FD033ADC09C7EE3FF5015B14E02F3EBE02
:102B50004E13000008130000FDF74DFC53EC1A2B38
:102B6000FDF78CFE9DED060B41EC1A0B53EC102B80
:102B70009DED000B51EC100BFDF73DFCCDE90C0178
:102B80009DED0C0B51EC1A0B53EC102BFDF776FE60
:102B9000CDE902010C46AA498C422FDB611A084399
:102BA00018D19DED0C0B53EC102B9DED020B51EC4D
:102BB000100BFDF704FF41EC1B0B9FEDA30B51EC39
:102BC0001A0B53EC102BFDF759FE53EC1B2BFDF7A2
:102BD0009BFF2DD2022000F041FA00F009FA10EE1E
:102BE000901A18EE900A8DED020B8DED008B61F3BB
:102BF0001E0003909DED020BFFF7BEBB944A24F02C
:102C00000041914214D39349214408437FF4EFAC2F
:102C10009DED0C0B53EC102B9DED020B51EC100BAA
:102C2000FDF7CDFE53EC1A2BFDF76EFF7FF6DFAC00
:102C300024F000408849894A002601EB2051824255
:102C40002BDA481C4FF4801121FA00F02044844A0A
:102C5000C0F30A517A44A1F2FF3192ED000B814A90
:102C60008DED080BCA4020EA0202C0F3130040F4C5
:102C70008010C1F1140120FA01F60992002CB8BFAE
:102C800076429DED080B53EC102B9DED0C0B51EC97
:102C9000100BFDF794FECDE90C019DED0C0B51ECF2
:102CA0001A0B53EC102BFDF7E9FD9FED6F0B08900D
:102CB000CDE9085153EC102B9DED080B51EC100B96
:102CC000FDF799FB41EC1B0B9FED690B53EC102BAF
:102CD0009DED080B51EC100BFDF78DFB9DED0C0BE2
:102CE00041EC1C0B53EC102B9DED080B51EC100B21
:102CF000FDF765FE53EC1A2BFDF764FE9FED5E1B9E
:102D000053EC112BFDF777FB53EC1C2BFDF7B6FDB5
:102D100041EC1A0B51EC1B0B53EC1A2BFDF7AEFDDB
:102D2000CDE902019DED020B53EC1B2B51EC100B76
:102D3000FDF745FE53EC1A2BFDF744FE9DED020B0B
:102D400041EC1A0B53EC102B51EC100BFDF753FB1D
:102D5000CDE908014A489DED080B0521784400F0B3
:102D600097F89DED081B51EC100B53EC112BFDF760
:102D700042FB9DED021B53EC112BFDF723FECDE929
:102D800006019DED020B53EC1A2B51EC100BFDF7D5
:102D900032FB53EC1A2BFDF771FD9FED3B0B41EC21
:102DA0001A0B53EC102B9DED060B51EC100BFDF79D
:102DB00006FE9DED060B41EC1B0B53EC102B9DED1D
:102DC000020B51EC100BFDF716FB53EC1B2BFDF720
:102DD000FCFD53EC1A2BFDF7F2FD9DED021B53ECAD
:102DE000112BFDF7ECFD53EC192BFDF7EBFDCDE9B5
:102DF000020101EB065001150029C8BF039015DC44
:102E00009DED020B324651EC100BFDF74DFEFFF726
:102E1000DDF9042808BF00F0FBF832469DED020BF7
:102E200051EC100BFDF740FECDE902019DED020BC8
:102E300051EC180B53EC102BFDF7DDFAFFF73ABB02
:102E40000000904000000000FE822B654715973C73
:102E500000CC904000346F3F01FCFFFF0000E03FDA
:102E600090110000FFFF0F0000000000432EE63F1E
:102E7000396CA80C615C20BEEF39FAFE422EE63FA9
:102E80006010000000000000000000000000004092
:102E900070B504462DED028B4D1E00EBC500B0EE63
:102EA000408AF0EE608A90ED000B35F0060017D0F6
:102EB00053EC182B51EC100BFDF79DFA41EC100B65
:102EC0006D1E04EBC50090ED001B51EC100B53EC94
:102ED000112BFDF7D3FC41EC100B35F00600E7D1C8
:102EE000022D36D0042D1CD0062D1CBFBDEC028B4C
:102EF00070BD53EC182B51EC100BFDF77CFA94EDE0
:102F00000A1B53EC112BFDF7B9FC53EC182BFDF702
:102F100072FA94ED081B53EC112BFDF7AFFC41EC5A
:102F2000100B53EC182B51EC100BFDF764FA94EDD9
:102F3000061B53EC112BFDF7A1FC53EC182BFDF7EE
:102F40005AFA94ED040B53EC102BFDF797FC41EC6F
:102F5000100B53EC182B51EC100BFDF74CFA94EDC1
:102F6000021B53EC112BFDF789FC53EC182BFDF7DA
:102F700042FA94ED001B53EC112BFDF77FFCBDECE6
:102F8000028B41EC100B70BD9FED070B10B553EC9D
:102F9000102B9FED070B51EC100BFDF716FD41ECCC
:102FA000100B10BD00000000000000000000000039
:102FB000000000000000F03F10B553EC112B51EC65
:102FC000100BFDF75BFC41EC100B10BD0000000086
:102FD0009FED050B10B553EC102B51EC100BFDF7CA
:102FE000F4FC41EC100B10BD0000000000000000DC
:102FF0009FED050B10B553EC102B51EC100BFDF7AA
:10300000FAF941EC100B10BD000000000000007048
:103010009FED050B10B553EC102B51EC100BFDF789
:10302000EAF941EC100B10BD000000000000001098
:1030300001480068704700003800002002E008C81E
:10304000121F08C1002AFAD170477047002001E022
:1030500001C1121F002AFBD170470000014908601E
:1030600070470000380000202DE9FF5F82B000218A
:10307000DDE90430020DDDF840B0034318D044F61A
:103080001050A2F2FF3242431514119801281FD0AC
:10309000A5EB0B00401C5FEA000A4FF000064E4F04
:1030A000DFF83891B046504615D5CAF1000413E058
:1030B000119801244AA3012801D16FEA0B0102985B
:1030C000119AC0E90031C0E9024206B0BDE8F09FA4
:1030D000CBF10000DFE704460021404A491842EBEB
:1030E0000450CDE9001012E0E00707D032463B461D
:1030F00040464946FDF77FF98046894632463B46C1
:1031000010461946FDF777F906460F466410002C65
:10311000EAD1DDE90401DDE90023BAF1000F06DAA6
:10312000FDF769F942464B46FDF765F905E0FDF705
:103130004CFC42464B46FDF748FC04460E46002236
:10314000284BFDF7E1FC03D84FF0FF30014607E0C4
:103150000022254B20463146FDF790FBFDF7BBFCD6
:10316000102409E0002C0ADB0A220023FDF72AFACA
:10317000039B30321A55641E50EA0102F2D1641CDE
:10318000039AC4F111031444119A012A03D00122B5
:1031900008430DD10AE0084304D000204FF0110B82
:1031A000119072E7A3EB0B056D1E0DE05B4504DD8E
:1031B0004FF0000205F1010504E003DA4FF00002D0
:1031C000A5F10105002AECD002981199C0E902315D
:1031D000C0E9004579E70000000014400000F03F1E
:1031E000300000000000F0430000E03F30380A28C3
:1031F00001D2012070470020704700002DE9FF4FE9
:1032000095B09A46884606460025EEE1252877D1F6
:1032100000242746F94A0121039400E0044316F8EC
:10322000013F203B01FA03F01042F7D130782A2801
:1032300011D06FF02F033078A0F13002092A16D890
:10324000039A44F0020402EB820203EB42021044B0
:10325000761C0390EFE758F8042B0392002A03DA58
:10326000504244F40054039044F00204761C307839
:103270002E2816D116F8010F44F004042A280DD088
:103280006FF02F023078A0F13003092B09D807EB3B
:10329000870302EB4303C718761CF3E758F8047B57
:1032A000761C30786C280FD006DC4C2817D06828A4
:1032B0000DD06A2814D104E0742810D07A280FD1D8
:1032C0000DE044F400140AE044F4801401E044F4F6
:1032D00040147278824202D104F58014761C761C68
:1032E000307866280BD013DC582877D009DC00280A
:1032F00075D04528F6D04628F4D047281AD193E156
:1033000018E0632835D0642879D0652812D18BE184
:10331000702873D008DC6728F1D069286FD06E2838
:103320000DD06F2806D1ACE073282CD0752874D04E
:10333000782853D05246179990476D1C54E1C4F336
:103340000250022809D003280DD0D8F80010042814
:103350000DD00D6008F1040846E1D8F80010EA1716
:10336000C1E90052F6E7D8F800100D80F2E70D70C1
:10337000F0E718F8041B8DF8001000208DF801000C
:10338000EB46012003E058F804BB4FF0FF30610723
:103390004FF0000102D40DE009F101018946B94264
:1033A0000FDA8145F8DB1BF809100029F4D108E099
:1033B00009F1010189468142FADB1BF80910002955
:1033C000F6D103985346A0EB090721463846179AD1
:1033D00000F080FA284400EB090507E044E008E12A
:1033E0000DE01BF8010B524617999047B9F10109FE
:1033F000F7D2534621463846179AF2E039E00A21BF
:10340000C4F302524FF0000B0091022A06D058F884
:10341000040BC117032A09D00AE023E008F10700D2
:1034200020F00702F2E80201904605E000B2C11761
:10343000042A01D140B2C117002906DA0A46002148
:10344000404261EB02012D2202E0220504D52B222D
:103450008DF80420012203E0E20701D02022F7E7E3
:10346000914657E00A2100E010214FF0000B009137
:103470000BE010214FF0000B44F0040408270091EA
:1034800003E008204FF0000B0090C4F30252022A20
:1034900005D058F8040B0021032A08D008E008F1F1
:1034A000070020F00702F2E80201904603E080B234
:1034B000042A00D1C0B24FF0000922072AD5327881
:1034C000702A07D0DDF800C08CF0100C5CEA0B0C01
:1034D00005D00EE040228DF80420012208E050EAD9
:1034E000010306D030238DF804308DF80520022228
:1034F0009146009B83F0080353EA0B030AD150EA7C
:10350000010201D1620705D530228DF804204FF069
:1035100001097F1E3278582A04D039A20C920CAAD5
:1035200002920BE03BA2F9E75B46009AFDF74AF8EE
:103530000C9B9B5C029A521E0292137050EA01028D
:10354000F2D1029804A9081A00F1200B600702D5F5
:1035500024F4803400E001275F4502DDA7EB0B0077
:1035600000E0002000EB0B01009003984944401A52
:103570000390E00306D453462146179A039800F0BF
:10358000A9F90544002706E001A85246C05D179935
:1035900090476D1C7F1C4F45F6DBE0030CD553466E
:1035A0002146179A039800F095F9054404E030206D
:1035B0005246179990476D1C0099481E00900029AB
:1035C000F5DC08E00298029952460078491C029105
:1035D000179990476D1CBBF10001ABF1010BF1DCB9
:1035E0005BE100F065F90544761C307800287FF433
:1035F0000DAE19B02846BDE8F08F00000928010083
:103600003031323334353637383961626364656658
:10361000000000003031323334353637383941421A
:103620004344454600000000600700D4062708F127
:10363000070020F00700F0E80223804603F0004C6A
:103640005FEA0C0001D097A009E0200501D596A003
:1036500005E0E00701D095A001E0AFF24C00139027
:10366000307823F0004365280CD006DC452809D0CB
:1036700046281DD047287FD13BE0662818D0672810
:103680007AD136E00021112F01DB112000E0781CF7
:10369000CDE9000104A90CA8FFF7E6FCDDE90D0166
:1036A0000C9A4FF0000B07F10109109200914EE0C7
:1036B0004FF000400097CDE9011004A90CA8FFF7D6
:1036C000D3FCDDE90D020C9B0F994FF0000B9146E6
:1036D0001093009211B9791C00EB0109B7EB0900B6
:1036E00003D4C0F1FF3B07F10109A9EB07000190EA
:1036F00042E0012F00DA01270021112F01DD112006
:1037000000E03846CDE9000104A90CA8FFF7ACFCA5
:10371000DDE90D010C9A00914FF0000BB9461092B3
:1037200021070FD4009A4A4503DA914601E0A9F136
:103730000109B9F1010F05DD109AA9F10101515CF0
:103740003029F4D0B84202DA10F1040F03DA012173
:10375000CDE9011010E0002803DC8344A9EB00014F
:1037600002E0411C494500DD8946A0EB0B00401CEE
:1037700001904FF000400290200705D40198484581
:1037800002DB4FF0FF30019000208DF84B000298D3
:103790000DF14B07B0F1004F25D002200C902B20EB
:1037A0000D90029800280CDA404202902D200D90D6
:1037B00007E00A210298FCF7EFFE3031029007F88B
:1037C000011D0C99481E0C900029F2DC029800287B
:1037D000EFD1791E0D980870307800F0200040F08D
:1037E000450007F8020D11A8C01BC01D02901398D8
:1037F000007800B1012000EB0901019801EBE071B4
:10380000029801440398401A401E0390E00306D436
:1038100053462146179A039800F05CF80544139824
:10382000007818B15246179990476D1CE00323D5D4
:1038300053462146179A039800F04CF805441BE0C4
:10384000BBF1000F07DB0098584504DD109817996D
:1038500010F80B0001E0179930205246904701986C
:103860000BF1010B401E05F10105019004D12E2042
:103870005246179990476D1CB9F10001A9F1010951
:10388000DEDC05E017F8010B5246179990476D1CD6
:103890000299481E02900029F4DC53462146179AEB
:1038A00003989EE62D0000002B0000002000000081
:1038B0002DE9F041044600251E461746880404D42D
:1038C00005E039462020B0476D1C641EF9D5284616
:1038D000BDE8F0812DE9F041044600251E469046E2
:1038E000C80301D5302700E02027880404D505E06F
:1038F00041463846B0476D1C641EF9D52846BDE8E0
:10390000F0810A68531C0B601070704782B0CDE9DB
:10391000000121F0004001909DED000B02B051EC40
:10392000100B704710B504464FF04020006940F07E
:1039300004004FF0402108612046FEF725F94FF0C2
:103940004020006920F004004FF04021086110BDC4
:1039500010B50446204600F005F83220FEF724F9A1
:1039600010BD000010B5044600204FF04021086251
:103970004FF4C870FEF708F920090949C86304200C
:10398000FFF7D0FF3220FEF70FF904F00F000449D3
:10399000C8630420FFF7C6FF3220FEF705F910BD0B
:1039A0000050004010B52DED028BFEF710F963A01A
:1039B000FEF71AFB4FF47A60FEF7F6F8FEF71AFAF4
:1039C0004BE0FEF787F9614908704FF47A70FEF713
:1039D000EBF8FEF77FF95E4908705C480078202814
:1039E00031D05A480078097888422CD0574800785E
:1039F0002A2807D05548007800F0C8F82A20FEF79A
:103A000033FA20E03D20534908705048007800F018
:103A1000BDF80446224650A15048FEF7C3FBFEF70E
:103A2000E9F94F48006840F2E57188420BD04DA09B
:103A3000FEF7DAFA40F6C410FEF7B6F8FEF7DAF948
:103A40000020474908604648006840F2E571884216
:103A500003D101204749086003E046480068002878
:103A6000AFD000BF61E0FEF735F9384908704FF478
:103A70007A70FEF799F8FEF72DF93549087033484A
:103A80000078202851D031480078097888424CD0FD
:103A900039480068401C384908600846006810280A
:103AA00004DD09789731C8B2FFF752FF2748007844
:103AB0002A2811D025480078FEF7A2FA202806D03F
:103AC00022480078FEF79CFA0446FEF7CDF91F481D
:103AD0000078FDF7FDFA28E03D201E4908701B48DC
:103AE0000078FDF7F5FA10EE104A2046FCF725FDA8
:103AF00041EC180B53EC182B20A12248FEF752FB87
:103B00002048FCF75BFC1C490860FEF773F91E486F
:103B100090ED000AB5EEC00AF1EE10FA03D0194894
:103B2000FEF762FA01E0FEF765F912480068012825
:103B300099D00020BDEC028B10BD0000454E5445CD
:103B4000522050415353574F524400002D00002043
:103B50002F0000202E00002025640000A00000207F
:103B60002800002057524F4E472050415353574F83
:103B700052440000140000201C00002025302E328A
:103B800066000000C80000201000002010B50446A8
:103B9000302C07D143A14448FCF704FC4249434878
:103BA000FCF713FC312C07D141A13F48FCF7FAFB8D
:103BB0003D493E48FCF709FC322C07D13DA13A486B
:103BC000FCF7F0FB38493948FCF7FFFB332C07D1F1
:103BD00039A13548FCF7E6FB33493448FCF7F5FBDF
:103BE000342C07D135A13048FCF7DCFB2E492F4897
:103BF000FCF7EBFB352C07D131A12B48FCF7D2FBAE
:103C000029492A48FCF7E1FB362C07D12DA126488B
:103C1000FCF7C8FB24492548FCF7D7FB372C07D114
:103C200029A12148FCF7BEFB1F492048FCF7CDFB2A
:103C3000382C07D125A11C48FCF7B4FB1A491B48B6
:103C4000FCF7C3FB392C07D121A11748FCF7AAFBCD
:103C500015491648FCF7B9FB2E2C07D11DA11248B7
:103C6000FCF7A0FB10491148FCF7AFFB2A2C01D14F
:103C7000012000E000203D2C01D1012100E00021C5
:103C8000084360B10948FCF7A9FB134908601421F7
:103C90000648FCF77CFB14210348FCF778FB0E4830
:103CA000006810BD30000000A00000208C00002043
:103CB000310000003200000033000000340000003A
:103CC000350000003600000037000000380000001A
:103CD000390000002E0000002800002000B52DED66
:103CE000048B83B041EC190BFDF787F941EC180BFD
:103CF00018EE100A18EE901A8DED008B002818BFF0
:103D00000120084320F00040C0F17F6000F1E04056
:103D1000C00F14D019EE101A19EE900A8DED009B09
:103D2000002918BF0121084320F00040C0F17F6046
:103D300000F1E040C00F04BF0120FFF78FF951EC04
:103D4000180B03B0BDEC048B00BD000031323341D1
:103D500034353642373839432A30234400000000D6
:103D6000000000000000F03F000000000000F83FED
:103D700000000000000000000000004003B8E23F27
:103D8000000000000000000006D0CF43EBFD4C3ED9
:103D9000033333333333E33FFFAB6FDBB66DDB3FCE
:103DA0004D268F515555D53F01411DA96074D13F16
:103DB00065DBC9934A86CD3FEF4E454A287ECA3F10
:103DC0003E5555555555C53F93BDBE166CC166BF92
:103DD0002CDE25AF6A56113FF16BD2C541BDBBBE8B
:103DE000D0A4BE726937663E0000000000000000EB
:103DF00000404040404040404040414141414140FE
:103E000040404040404040404040404040404040B2
:103E10004005020202020202020202020202020241
:103E20000220202020202020202020020202020246
:103E3000020290909090909010101010101010109E
:103E400010101010101010101010101002020202AA
:103E500002028888888888880808080808080808EE
:103E600008080808080808080808080802020202EA
:103E700040000000F13D0000983E000000000020DE
:103E80003C0000003C300000D43E00003C0000201C
:103E9000F40200004C3000000000000000000000B0
:103EA0000000000000000000000000000000000012
:103EB0000000000000000000000000000000000002
:103EC00000000000000000000000000000000000F2
:043ED00000000000EE
:040000050000028570
:00000001FF
